{
  "contractName": "Coin",
  "abi": [
    {
      "constant": true,
      "inputs": [
        {
          "name": "",
          "type": "address"
        }
      ],
      "name": "assignableCoins",
      "outputs": [
        {
          "name": "",
          "type": "uint256"
        }
      ],
      "payable": false,
      "stateMutability": "view",
      "type": "function"
    },
    {
      "constant": true,
      "inputs": [
        {
          "name": "",
          "type": "address"
        }
      ],
      "name": "spendableCoins",
      "outputs": [
        {
          "name": "",
          "type": "uint256"
        }
      ],
      "payable": false,
      "stateMutability": "view",
      "type": "function"
    },
    {
      "inputs": [],
      "payable": false,
      "stateMutability": "nonpayable",
      "type": "constructor"
    },
    {
      "anonymous": false,
      "inputs": [
        {
          "indexed": true,
          "name": "from",
          "type": "address"
        },
        {
          "indexed": true,
          "name": "to",
          "type": "address"
        },
        {
          "indexed": false,
          "name": "amount",
          "type": "uint256"
        },
        {
          "indexed": false,
          "name": "reason",
          "type": "string"
        },
        {
          "indexed": false,
          "name": "timestamp",
          "type": "uint256"
        }
      ],
      "name": "Transfer",
      "type": "event"
    },
    {
      "constant": false,
      "inputs": [
        {
          "name": "userAddress",
          "type": "address"
        }
      ],
      "name": "addUser",
      "outputs": [],
      "payable": false,
      "stateMutability": "nonpayable",
      "type": "function"
    },
    {
      "constant": false,
      "inputs": [
        {
          "name": "userAddress",
          "type": "address"
        },
        {
          "name": "amount",
          "type": "uint256"
        }
      ],
      "name": "setAssignableCoins",
      "outputs": [],
      "payable": false,
      "stateMutability": "nonpayable",
      "type": "function"
    },
    {
      "constant": false,
      "inputs": [
        {
          "name": "userAddress",
          "type": "address"
        },
        {
          "name": "amount",
          "type": "uint256"
        }
      ],
      "name": "addAssignableCoins",
      "outputs": [],
      "payable": false,
      "stateMutability": "nonpayable",
      "type": "function"
    },
    {
      "constant": false,
      "inputs": [
        {
          "name": "addr",
          "type": "address"
        },
        {
          "name": "amount",
          "type": "uint256"
        }
      ],
      "name": "burnCoin",
      "outputs": [],
      "payable": false,
      "stateMutability": "nonpayable",
      "type": "function"
    },
    {
      "constant": false,
      "inputs": [
        {
          "name": "receiver",
          "type": "address"
        },
        {
          "name": "amount",
          "type": "uint256"
        },
        {
          "name": "reason",
          "type": "string"
        }
      ],
      "name": "sendCoin",
      "outputs": [],
      "payable": false,
      "stateMutability": "nonpayable",
      "type": "function"
    }
  ],
  "bytecode": "0x6060604052341561000f57600080fd5b336000806101000a81548173ffffffffffffffffffffffffffffffffffffffff021916908373ffffffffffffffffffffffffffffffffffffffff1602179055506108b18061005e6000396000f300606060405260043610610082576000357c0100000000000000000000000000000000000000000000000000000000900463ffffffff168062d2285c146100875780632ef60932146100c95780633786ce8a14610116578063421b2d8b146101585780635a34881214610191578063befe68c7146101de578063d8ba95a014610220575b600080fd5b341561009257600080fd5b6100c7600480803573ffffffffffffffffffffffffffffffffffffffff169060200190919080359060200190919050506102a5565b005b34156100d457600080fd5b610100600480803573ffffffffffffffffffffffffffffffffffffffff16906020019091905050610351565b6040518082815260200191505060405180910390f35b341561012157600080fd5b610156600480803573ffffffffffffffffffffffffffffffffffffffff16906020019091908035906020019091905050610369565b005b341561016357600080fd5b61018f600480803573ffffffffffffffffffffffffffffffffffffffff1690602001909190505061040c565b005b341561019c57600080fd5b6101c8600480803573ffffffffffffffffffffffffffffffffffffffff169060200190919050506104f4565b6040518082815260200191505060405180910390f35b34156101e957600080fd5b61021e600480803573ffffffffffffffffffffffffffffffffffffffff1690602001909190803590602001909190505061050c565b005b341561022b57600080fd5b6102a3600480803573ffffffffffffffffffffffffffffffffffffffff1690602001909190803590602001909190803590602001908201803590602001908080601f01602080910402602001604051908101604052809392919081815260200183838082843782019150505050505091905050610609565b005b6000809054906101000a900473ffffffffffffffffffffffffffffffffffffffff1673ffffffffffffffffffffffffffffffffffffffff163373ffffffffffffffffffffffffffffffffffffffff1614151561030057600080fd5b80600160008473ffffffffffffffffffffffffffffffffffffffff1673ffffffffffffffffffffffffffffffffffffffff168152602001908152602001600020600082825401925050819055505050565b60016020528060005260406000206000915090505481565b6000809054906101000a900473ffffffffffffffffffffffffffffffffffffffff1673ffffffffffffffffffffffffffffffffffffffff163373ffffffffffffffffffffffffffffffffffffffff161415156103c457600080fd5b80600160008473ffffffffffffffffffffffffffffffffffffffff1673ffffffffffffffffffffffffffffffffffffffff168152602001908152602001600020819055505050565b6000809054906101000a900473ffffffffffffffffffffffffffffffffffffffff1673ffffffffffffffffffffffffffffffffffffffff163373ffffffffffffffffffffffffffffffffffffffff1614151561046757600080fd5b6000600160008373ffffffffffffffffffffffffffffffffffffffff1673ffffffffffffffffffffffffffffffffffffffff168152602001908152602001600020819055506000600260008373ffffffffffffffffffffffffffffffffffffffff1673ffffffffffffffffffffffffffffffffffffffff1681526020019081526020016000208190555050565b60026020528060005260406000206000915090505481565b6000809054906101000a900473ffffffffffffffffffffffffffffffffffffffff1673ffffffffffffffffffffffffffffffffffffffff163373ffffffffffffffffffffffffffffffffffffffff1614151561056757600080fd5b600081600260008573ffffffffffffffffffffffffffffffffffffffff1673ffffffffffffffffffffffffffffffffffffffff1681526020019081526020016000205403101515156105b857600080fd5b80600260008473ffffffffffffffffffffffffffffffffffffffff1673ffffffffffffffffffffffffffffffffffffffff168152602001908152602001600020600082825403925050819055505050565b81600160003373ffffffffffffffffffffffffffffffffffffffff1673ffffffffffffffffffffffffffffffffffffffff168152602001908152602001600020541015801561068457503373ffffffffffffffffffffffffffffffffffffffff168373ffffffffffffffffffffffffffffffffffffffff1614155b8015610691575060038211155b151561069c57600080fd5b81600260008573ffffffffffffffffffffffffffffffffffffffff1673ffffffffffffffffffffffffffffffffffffffff1681526020019081526020016000205401600260008573ffffffffffffffffffffffffffffffffffffffff1673ffffffffffffffffffffffffffffffffffffffff1681526020019081526020016000208190555081600160003373ffffffffffffffffffffffffffffffffffffffff1673ffffffffffffffffffffffffffffffffffffffff1681526020019081526020016000205403600160003373ffffffffffffffffffffffffffffffffffffffff1673ffffffffffffffffffffffffffffffffffffffff168152602001908152602001600020819055508273ffffffffffffffffffffffffffffffffffffffff163373ffffffffffffffffffffffffffffffffffffffff167fc4b32d7ff75a51e487f3cbb5d3202f2efecca1f4c2b987e0039c1d3220b48a838484426040518084815260200180602001838152602001828103825284818151815260200191508051906020019080838360005b83811015610844578082015181840152602081019050610829565b50505050905090810190601f1680156108715780820380516001836020036101000a031916815260200191505b5094505050505060405180910390a35050505600a165627a7a72305820ef5140295eabf0217ade6b7021e5f936c1a104d95ac51807afdf802adeeb90a10029",
  "source": "pragma solidity ^0.4.19;\r\n\r\ncontract Coin {\r\n\taddress adminAddress;\r\n\r\n\tmapping (address => uint) public assignableCoins;\r\n\tmapping (address => uint) public spendableCoins;\r\n\r\n\tevent Transfer(\r\n\t\taddress indexed from,\r\n\t\taddress indexed to,\r\n\t\tuint256 amount,\r\n\t\tstring reason,\r\n\t\tuint timestamp\r\n\t);\r\n\r\n\tfunction Coin() public {\r\n\t\tadminAddress = msg.sender;\r\n\t}\r\n\r\n\tmodifier onlyByCreator {\r\n    require(msg.sender == adminAddress);\r\n    _;\r\n    }\r\n\r\n\tfunction addUser(address userAddress) public onlyByCreator {\r\n\t\tassignableCoins[userAddress] = 0;\r\n\t\tspendableCoins[userAddress] = 0;\r\n\t}\r\n\r\n\tfunction setAssignableCoins(address userAddress, uint amount) public onlyByCreator {\r\n\t\tassignableCoins[userAddress] = amount;\r\n\t}\r\n\r\n\tfunction addAssignableCoins(address userAddress, uint amount) public onlyByCreator {\r\n\t\tassignableCoins[userAddress] += amount;\r\n\t}\r\n\r\n\tfunction burnCoin(address addr, uint amount) public onlyByCreator{\r\n\t\trequire((spendableCoins[addr] - amount) >= 0);\r\n\t\tspendableCoins[addr] -= amount;\r\n\t}\r\n\r\n\tfunction sendCoin(address receiver, uint amount, string reason) public {\r\n\t\trequire(assignableCoins[msg.sender] >= amount && receiver != msg.sender && amount <= 3);\r\n\t\t    spendableCoins[receiver] = spendableCoins[receiver] + (amount);\r\n\t\t\tassignableCoins[msg.sender] = assignableCoins[msg.sender] - amount;\r\n\t\t\tTransfer(msg.sender, receiver, amount, reason, block.timestamp);\r\n\t}\r\n}",
  "sourcePath": "D:\\Development\\eth\\web3.js-snippets\\contracts\\Coin.sol",
  "compiler": {
    "name": "solc",
    "version": "0.4.19+commit.c4cbbb05.Emscripten.clang"
  },
  "schemaVersion": "1.0.1",
  "updatedAt": "2018-02-25T13:19:59.645Z"
}